{
    "_format": "hh-sol-artifact-1",
    "contractName": "PriceFeedsMoC",
    "sourceName": "contracts/feeds/testnet/PriceFeedsMoC.sol",
    "address": "0x391fe8a92a7FC626A25F30E8c19B92bf8BE37FD3",
    "abi": [
        {
            "inputs": [
                {
                    "internalType": "address",
                    "name": "_mocOracleAddress",
                    "type": "address"
                },
                {
                    "internalType": "address",
                    "name": "_rskOracleAddress",
                    "type": "address"
                }
            ],
            "payable": false,
            "stateMutability": "nonpayable",
            "type": "constructor"
        },
        {
            "anonymous": false,
            "inputs": [
                {
                    "indexed": true,
                    "internalType": "address",
                    "name": "previousOwner",
                    "type": "address"
                },
                {
                    "indexed": true,
                    "internalType": "address",
                    "name": "newOwner",
                    "type": "address"
                }
            ],
            "name": "OwnershipTransferred",
            "type": "event"
        },
        {
            "anonymous": false,
            "inputs": [
                {
                    "indexed": true,
                    "internalType": "address",
                    "name": "mocOracleAddress",
                    "type": "address"
                },
                {
                    "indexed": false,
                    "internalType": "address",
                    "name": "changerAddress",
                    "type": "address"
                }
            ],
            "name": "SetMoCOracleAddress",
            "type": "event"
        },
        {
            "anonymous": false,
            "inputs": [
                {
                    "indexed": true,
                    "internalType": "address",
                    "name": "rskOracleAddress",
                    "type": "address"
                },
                {
                    "indexed": false,
                    "internalType": "address",
                    "name": "changerAddress",
                    "type": "address"
                }
            ],
            "name": "SetRSKOracleAddress",
            "type": "event"
        },
        {
            "constant": true,
            "inputs": [],
            "name": "isOwner",
            "outputs": [
                {
                    "internalType": "bool",
                    "name": "",
                    "type": "bool"
                }
            ],
            "payable": false,
            "stateMutability": "view",
            "type": "function"
        },
        {
            "constant": true,
            "inputs": [],
            "name": "latestAnswer",
            "outputs": [
                {
                    "internalType": "uint256",
                    "name": "",
                    "type": "uint256"
                }
            ],
            "payable": false,
            "stateMutability": "view",
            "type": "function"
        },
        {
            "constant": true,
            "inputs": [],
            "name": "mocOracleAddress",
            "outputs": [
                {
                    "internalType": "address",
                    "name": "",
                    "type": "address"
                }
            ],
            "payable": false,
            "stateMutability": "view",
            "type": "function"
        },
        {
            "constant": true,
            "inputs": [],
            "name": "owner",
            "outputs": [
                {
                    "internalType": "address",
                    "name": "",
                    "type": "address"
                }
            ],
            "payable": false,
            "stateMutability": "view",
            "type": "function"
        },
        {
            "constant": true,
            "inputs": [],
            "name": "rskOracleAddress",
            "outputs": [
                {
                    "internalType": "address",
                    "name": "",
                    "type": "address"
                }
            ],
            "payable": false,
            "stateMutability": "view",
            "type": "function"
        },
        {
            "constant": false,
            "inputs": [
                {
                    "internalType": "address",
                    "name": "_mocOracleAddress",
                    "type": "address"
                }
            ],
            "name": "setMoCOracleAddress",
            "outputs": [],
            "payable": false,
            "stateMutability": "nonpayable",
            "type": "function"
        },
        {
            "constant": false,
            "inputs": [
                {
                    "internalType": "address",
                    "name": "_rskOracleAddress",
                    "type": "address"
                }
            ],
            "name": "setRSKOracleAddress",
            "outputs": [],
            "payable": false,
            "stateMutability": "nonpayable",
            "type": "function"
        },
        {
            "constant": false,
            "inputs": [
                {
                    "internalType": "address",
                    "name": "newOwner",
                    "type": "address"
                }
            ],
            "name": "transferOwnership",
            "outputs": [],
            "payable": false,
            "stateMutability": "nonpayable",
            "type": "function"
        }
    ],
    "bytecode": "0x608060405234801561001057600080fd5b506040516109c03803806109c08339818101604052604081101561003357600080fd5b508051602090910151600061004f6001600160e01b036100c416565b600080546001600160a01b0319166001600160a01b0383169081178255604051929350917f8be0079c531659141344cd1fd0a4f28419497f9722a3daafe3b4186f6b6457e0908290a3506100ab826001600160e01b036100c816565b6100bd816001600160e01b036101da16565b5050610355565b3390565b6100d96001600160e01b036102ec16565b610119576040805162461bcd60e51b815260206004820152600c60248201526b1d5b985d5d1a1bdc9a5e995960a21b604482015290519081900360640190fd5b61012c8161031960201b6105211760201c565b61017d576040805162461bcd60e51b815260206004820181905260248201527f5f6d6f634f7261636c6541646472657373206e6f74206120636f6e7472616374604482015290519081900360640190fd5b600180546001600160a01b0319166001600160a01b03838116919091179182905560408051338152905192909116917f1275deefe41e3273f2a99545002cc8369a04b2dbd04b2557e428a712cb2d5117916020908290030190a250565b6101eb6001600160e01b036102ec16565b61022b576040805162461bcd60e51b815260206004820152600c60248201526b1d5b985d5d1a1bdc9a5e995960a21b604482015290519081900360640190fd5b61023e8161031960201b6105211760201c565b61028f576040805162461bcd60e51b815260206004820181905260248201527f5f72736b4f7261636c6541646472657373206e6f74206120636f6e7472616374604482015290519081900360640190fd5b600280546001600160a01b0319166001600160a01b03838116919091179182905560408051338152905192909116917f94305f79fd34fa915e2815446cd306362132a59408d9f79f071eca99bde86dff916020908290030190a250565b600080546001600160a01b031661030a6001600160e01b036100c416565b6001600160a01b031614905090565b6000813f7fc5d2460186f7233c927e7db2dcc703c0e500b653ca82273b7bfad8045d85a47081811480159061034d57508115155b949350505050565b61065c806103646000396000f3fe608060405234801561001057600080fd5b50600436106100885760003560e01c8063a1e601091161005b578063a1e601091461010f578063b4c1e84814610135578063f106b5f41461013d578063f2fde38b1461014557610088565b80634541b2e31461008d57806350d25bcd146100b55780638da5cb5b146100cf5780638f32d59b146100f3575b600080fd5b6100b3600480360360208110156100a357600080fd5b50356001600160a01b031661016b565b005b6100bd61026a565b60408051918252519081900360200190f35b6100d761037d565b604080516001600160a01b039092168252519081900360200190f35b6100fb61038c565b604080519115158252519081900360200190f35b6100b36004803603602081101561012557600080fd5b50356001600160a01b03166103b0565b6100d76104af565b6100d76104be565b6100b36004803603602081101561015b57600080fd5b50356001600160a01b03166104cd565b61017361038c565b6101b3576040805162461bcd60e51b815260206004820152600c60248201526b1d5b985d5d1a1bdc9a5e995960a21b604482015290519081900360640190fd5b6101bc81610521565b61020d576040805162461bcd60e51b815260206004820181905260248201527f5f6d6f634f7261636c6541646472657373206e6f74206120636f6e7472616374604482015290519081900360640190fd5b600180546001600160a01b0319166001600160a01b03838116919091179182905560408051338152905192909116917f1275deefe41e3273f2a99545002cc8369a04b2dbd04b2557e428a712cb2d5117916020908290030190a250565b6000806000600160009054906101000a90046001600160a01b03166001600160a01b03166359e02dd76040518163ffffffff1660e01b8152600401604080518083038186803b1580156102bc57600080fd5b505afa1580156102d0573d6000803e3d6000fd5b505050506040513d60408110156102e657600080fd5b508051602090910151909250905080156103025750905061037a565b600254604080516307169c6760e31b815281516000936001600160a01b0316926338b4e3389260048082019391829003018186803b15801561034357600080fd5b505afa158015610357573d6000803e3d6000fd5b505050506040513d604081101561036d57600080fd5b5051935061037a92505050565b90565b6000546001600160a01b031690565b600080546001600160a01b03166103a161055d565b6001600160a01b031614905090565b6103b861038c565b6103f8576040805162461bcd60e51b815260206004820152600c60248201526b1d5b985d5d1a1bdc9a5e995960a21b604482015290519081900360640190fd5b61040181610521565b610452576040805162461bcd60e51b815260206004820181905260248201527f5f72736b4f7261636c6541646472657373206e6f74206120636f6e7472616374604482015290519081900360640190fd5b600280546001600160a01b0319166001600160a01b03838116919091179182905560408051338152905192909116917f94305f79fd34fa915e2815446cd306362132a59408d9f79f071eca99bde86dff916020908290030190a250565b6002546001600160a01b031681565b6001546001600160a01b031681565b6104d561038c565b610515576040805162461bcd60e51b815260206004820152600c60248201526b1d5b985d5d1a1bdc9a5e995960a21b604482015290519081900360640190fd5b61051e81610561565b50565b6000813f7fc5d2460186f7233c927e7db2dcc703c0e500b653ca82273b7bfad8045d85a47081811480159061055557508115155b949350505050565b3390565b6001600160a01b0381166105a65760405162461bcd60e51b81526004018080602001828103825260268152602001806106026026913960400191505060405180910390fd5b600080546040516001600160a01b03808516939216917f8be0079c531659141344cd1fd0a4f28419497f9722a3daafe3b4186f6b6457e091a3600080546001600160a01b0319166001600160a01b039290921691909117905556fe4f776e61626c653a206e6577206f776e657220697320746865207a65726f2061646472657373a265627a7a723158200b3322dd13629654dc236b21e7c5921ab45566c854dd1944b713dc02e1b265d864736f6c63430005110032",
    "linkReferences": {},
    "deployedLinkReferences": {}
}