{
  "address": "0x85B1977ed5F4e2eB1aA97018C975cC0453548726",
  "abi": [
    {
      "inputs": [],
      "payable": false,
      "stateMutability": "nonpayable",
      "type": "constructor"
    },
    {
      "constant": true,
      "inputs": [],
      "name": "latestAnswer",
      "outputs": [
        {
          "internalType": "uint256",
          "name": "",
          "type": "uint256"
        },
        {
          "internalType": "bool",
          "name": "",
          "type": "bool"
        }
      ],
      "payable": false,
      "stateMutability": "view",
      "type": "function"
    }
  ],
  "transactionHash": "0xf414cbf94defcbaddf27e42d3987214ad676df1682c34ebf1164d4f2886ad545",
  "args": [],
  "numDeployments": 1,
  "solcInputHash": "16f4cc7b465870fcef926f7cf0d5a361",
  "bytecode": "0x6080604052348015600f57600080fd5b5060888061001e6000396000f3fe6080604052348015600f57600080fd5b506004361060285760003560e01c806350d25bcd14602d575b600080fd5b6033604c565b6040805192835290151560208301528051918290030190f35b600080909156fea265627a7a72315820b2a754ed3ea05949f3e9f4efe33809ccf24a0249d1bde84f74c2d10e18ab037164736f6c63430005110032",
  "devdoc": {
    "details": "Dummy Oracle contract that supports MoC medianizer interface (latestAnswer) which will always return (0, false) value",
    "methods": {
      "latestAnswer()": {
        "details": "dummy function to support MoC medianizer",
        "return": "priceValue which is hardcoded to 0flag that indicate if the price is valid or not, hardcoded to false"
      }
    }
  },
  "userdoc": {
    "methods": {}
  },
  "storageLayout": {
    "storage": [],
    "types": null
  }
}