{
  "address": "0xCE1D1A2509575eD65c0b6eCde43Ad6Fffd428fB7",
  "abi": [
    {
      "inputs": [
        {
          "internalType": "uint256",
          "name": "_price",
          "type": "uint256"
        }
      ],
      "payable": false,
      "stateMutability": "nonpayable",
      "type": "constructor"
    },
    {
      "constant": true,
      "inputs": [],
      "name": "peek",
      "outputs": [
        {
          "internalType": "bytes32",
          "name": "value",
          "type": "bytes32"
        },
        {
          "internalType": "bool",
          "name": "hasValue",
          "type": "bool"
        }
      ],
      "payable": false,
      "stateMutability": "view",
      "type": "function"
    },
    {
      "constant": true,
      "inputs": [],
      "name": "price",
      "outputs": [
        {
          "internalType": "uint256",
          "name": "",
          "type": "uint256"
        }
      ],
      "payable": false,
      "stateMutability": "view",
      "type": "function"
    },
    {
      "constant": false,
      "inputs": [
        {
          "internalType": "uint256",
          "name": "_price",
          "type": "uint256"
        }
      ],
      "name": "setPrice",
      "outputs": [],
      "payable": false,
      "stateMutability": "nonpayable",
      "type": "function"
    }
  ],
  "transactionHash": "0x3850b26f38191032d38c727db7098cd6aa3e92f387ce2e397e604d1c183c71ef",
  "args": [
    "100000000000000000000000"
  ],
  "numDeployments": 3,
  "solcInputHash": "55ca5f5e5032e71b0fd3aa857253b73f",
  "bytecode": "0x608060405234801561001057600080fd5b506040516101233803806101238339818101604052602081101561003357600080fd5b505160005560dd806100466000396000f3fe6080604052348015600f57600080fd5b5060043610603c5760003560e01c806359e02dd714604157806391b7f5ed146060578063a035b1fe14607c575b600080fd5b60476094565b6040805192835290151560208301528051918290030190f35b607a60048036036020811015607457600080fd5b5035609d565b005b608260a2565b60408051918252519081900360200190f35b60005460019091565b600055565b6000548156fea265627a7a723158206a671e76933e50fbff6eb48393fd95b3c74045f594b5f83ca0b284b04c8a598364736f6c63430005110032",
  "devdoc": {
    "methods": {
      "peek()": {
        "details": "returning fixed price of rbtc (e.g: 100k)",
        "return": "value value price of rbtchasValue flag that is indicating the price is working or not"
      },
      "setPrice(uint256)": {
        "details": "set mock price",
        "params": {
          "_price": "new price"
        }
      }
    }
  },
  "userdoc": {
    "methods": {},
    "notice": "Mock medianizer contract that will support for MoC medianizer interface to be used for testnet "
  },
  "storageLayout": {
    "storage": [
      {
        "astId": 3,
        "contract": "contracts/feeds/testnet/MockMoCMedianizer.sol:MockMoCMedianizer",
        "label": "price",
        "offset": 0,
        "slot": "0",
        "type": "t_uint256"
      }
    ],
    "types": {
      "t_uint256": {
        "encoding": "inplace",
        "label": "uint256",
        "numberOfBytes": "32"
      }
    }
  }
}