{
  "address": "0xfD78E69bB6f0A8903A3C4C30F2c8e5F3b9c57ecc",
  "abi": [
    {
      "inputs": [
        {
          "internalType": "uint256",
          "name": "_price",
          "type": "uint256"
        }
      ],
      "payable": false,
      "stateMutability": "nonpayable",
      "type": "constructor"
    },
    {
      "anonymous": false,
      "inputs": [
        {
          "indexed": true,
          "internalType": "address",
          "name": "previousOwner",
          "type": "address"
        },
        {
          "indexed": true,
          "internalType": "address",
          "name": "newOwner",
          "type": "address"
        }
      ],
      "name": "OwnershipTransferred",
      "type": "event"
    },
    {
      "constant": true,
      "inputs": [],
      "name": "isOwner",
      "outputs": [
        {
          "internalType": "bool",
          "name": "",
          "type": "bool"
        }
      ],
      "payable": false,
      "stateMutability": "view",
      "type": "function"
    },
    {
      "constant": true,
      "inputs": [],
      "name": "owner",
      "outputs": [
        {
          "internalType": "address",
          "name": "",
          "type": "address"
        }
      ],
      "payable": false,
      "stateMutability": "view",
      "type": "function"
    },
    {
      "constant": true,
      "inputs": [],
      "name": "peek",
      "outputs": [
        {
          "internalType": "bytes32",
          "name": "value",
          "type": "bytes32"
        },
        {
          "internalType": "bool",
          "name": "hasValue",
          "type": "bool"
        }
      ],
      "payable": false,
      "stateMutability": "view",
      "type": "function"
    },
    {
      "constant": true,
      "inputs": [],
      "name": "price",
      "outputs": [
        {
          "internalType": "uint256",
          "name": "",
          "type": "uint256"
        }
      ],
      "payable": false,
      "stateMutability": "view",
      "type": "function"
    },
    {
      "constant": false,
      "inputs": [
        {
          "internalType": "uint256",
          "name": "_price",
          "type": "uint256"
        }
      ],
      "name": "setPrice",
      "outputs": [],
      "payable": false,
      "stateMutability": "nonpayable",
      "type": "function"
    },
    {
      "constant": false,
      "inputs": [
        {
          "internalType": "address",
          "name": "newOwner",
          "type": "address"
        }
      ],
      "name": "transferOwnership",
      "outputs": [],
      "payable": false,
      "stateMutability": "nonpayable",
      "type": "function"
    }
  ],
  "transactionHash": "0xad6b77da93b38664dd52819a66c5b500e2c3cc883b64f3d812a1dada1f97dfae",
  "args": [
    "100000000000000000000000"
  ],
  "numDeployments": 1,
  "solcInputHash": "1ad3d633e7c3e00d9d6f2e4c95eb91e2",
  "bytecode": "0x608060405234801561001057600080fd5b506040516103b43803806103b48339818101604052602081101561003357600080fd5b505160006100486001600160e01b0361009a16565b600080546001600160a01b0319166001600160a01b0383169081178255604051929350917f8be0079c531659141344cd1fd0a4f28419497f9722a3daafe3b4186f6b6457e0908290a35060015561009e565b3390565b610307806100ad6000396000f3fe608060405234801561001057600080fd5b50600436106100625760003560e01c806359e02dd7146100675780638da5cb5b146100885780638f32d59b146100ac57806391b7f5ed146100c8578063a035b1fe146100e7578063f2fde38b14610101575b600080fd5b61006f610127565b6040805192835290151560208301528051918290030190f35b61009061012e565b604080516001600160a01b039092168252519081900360200190f35b6100b461013d565b604080519115158252519081900360200190f35b6100e5600480360360208110156100de57600080fd5b5035610161565b005b6100ef6101ae565b60408051918252519081900360200190f35b6100e56004803603602081101561011757600080fd5b50356001600160a01b03166101b4565b6001805491565b6000546001600160a01b031690565b600080546001600160a01b0316610152610208565b6001600160a01b031614905090565b61016961013d565b6101a9576040805162461bcd60e51b815260206004820152600c60248201526b1d5b985d5d1a1bdc9a5e995960a21b604482015290519081900360640190fd5b600155565b60015481565b6101bc61013d565b6101fc576040805162461bcd60e51b815260206004820152600c60248201526b1d5b985d5d1a1bdc9a5e995960a21b604482015290519081900360640190fd5b6102058161020c565b50565b3390565b6001600160a01b0381166102515760405162461bcd60e51b81526004018080602001828103825260268152602001806102ad6026913960400191505060405180910390fd5b600080546040516001600160a01b03808516939216917f8be0079c531659141344cd1fd0a4f28419497f9722a3daafe3b4186f6b6457e091a3600080546001600160a01b0319166001600160a01b039290921691909117905556fe4f776e61626c653a206e6577206f776e657220697320746865207a65726f2061646472657373a265627a7a72315820ba791f6948ca42b03c1fb98a6f481c59a165e2f4771fdbf6aece98c4af33b88e64736f6c63430005110032",
  "devdoc": {
    "methods": {
      "isOwner()": {
        "details": "Returns true if the caller is the current owner."
      },
      "owner()": {
        "details": "Returns the address of the current owner."
      },
      "peek()": {
        "details": "returning fixed price of rbtc (e.g: 100k)",
        "return": "value value price of rbtchasValue flag that is indicating the price is working or not"
      },
      "setPrice(uint256)": {
        "details": "set mock pricecan only be called by owner",
        "params": {
          "_price": "new price"
        }
      },
      "transferOwnership(address)": {
        "details": "Transfers ownership of the contract to a new account (`newOwner`). Can only be called by the current owner."
      }
    }
  },
  "userdoc": {
    "methods": {},
    "notice": "Mock medianizer contract that will support for MoC medianizer interface to be used for testnet "
  },
  "storageLayout": {
    "storage": [
      {
        "astId": 55759,
        "contract": "contracts/feeds/testnet/MockMoCMedianizer.sol:MockMoCMedianizer",
        "label": "_owner",
        "offset": 0,
        "slot": "0",
        "type": "t_address"
      },
      {
        "astId": 12226,
        "contract": "contracts/feeds/testnet/MockMoCMedianizer.sol:MockMoCMedianizer",
        "label": "price",
        "offset": 0,
        "slot": "1",
        "type": "t_uint256"
      }
    ],
    "types": {
      "t_address": {
        "encoding": "inplace",
        "label": "address",
        "numberOfBytes": "20"
      },
      "t_uint256": {
        "encoding": "inplace",
        "label": "uint256",
        "numberOfBytes": "32"
      }
    }
  }
}