{
  "address": "0x10A31E48694000d9280a93195104Fea2b307774C",
  "abi": [
    {
      "inputs": [
        {
          "internalType": "address",
          "name": "_mocOracleAddress",
          "type": "address"
        },
        {
          "internalType": "address",
          "name": "_fallbackOracleAddress",
          "type": "address"
        }
      ],
      "payable": false,
      "stateMutability": "nonpayable",
      "type": "constructor"
    },
    {
      "anonymous": false,
      "inputs": [
        {
          "indexed": true,
          "internalType": "address",
          "name": "previousOwner",
          "type": "address"
        },
        {
          "indexed": true,
          "internalType": "address",
          "name": "newOwner",
          "type": "address"
        }
      ],
      "name": "OwnershipTransferred",
      "type": "event"
    },
    {
      "anonymous": false,
      "inputs": [
        {
          "indexed": true,
          "internalType": "address",
          "name": "fallbackOracleAddress",
          "type": "address"
        },
        {
          "indexed": false,
          "internalType": "address",
          "name": "changerAddress",
          "type": "address"
        }
      ],
      "name": "SetFallbackOracleAddress",
      "type": "event"
    },
    {
      "anonymous": false,
      "inputs": [
        {
          "indexed": true,
          "internalType": "address",
          "name": "mocOracleAddress",
          "type": "address"
        },
        {
          "indexed": false,
          "internalType": "address",
          "name": "changerAddress",
          "type": "address"
        }
      ],
      "name": "SetMoCOracleAddress",
      "type": "event"
    },
    {
      "constant": true,
      "inputs": [],
      "name": "fallbackOracleAddress",
      "outputs": [
        {
          "internalType": "address",
          "name": "",
          "type": "address"
        }
      ],
      "payable": false,
      "stateMutability": "view",
      "type": "function"
    },
    {
      "constant": true,
      "inputs": [],
      "name": "isOwner",
      "outputs": [
        {
          "internalType": "bool",
          "name": "",
          "type": "bool"
        }
      ],
      "payable": false,
      "stateMutability": "view",
      "type": "function"
    },
    {
      "constant": true,
      "inputs": [],
      "name": "latestAnswer",
      "outputs": [
        {
          "internalType": "uint256",
          "name": "",
          "type": "uint256"
        }
      ],
      "payable": false,
      "stateMutability": "view",
      "type": "function"
    },
    {
      "constant": true,
      "inputs": [],
      "name": "mocOracleAddress",
      "outputs": [
        {
          "internalType": "address",
          "name": "",
          "type": "address"
        }
      ],
      "payable": false,
      "stateMutability": "view",
      "type": "function"
    },
    {
      "constant": true,
      "inputs": [],
      "name": "owner",
      "outputs": [
        {
          "internalType": "address",
          "name": "",
          "type": "address"
        }
      ],
      "payable": false,
      "stateMutability": "view",
      "type": "function"
    },
    {
      "constant": false,
      "inputs": [
        {
          "internalType": "address",
          "name": "_fallbackOracleAddress",
          "type": "address"
        }
      ],
      "name": "setFallbackOracleAddress",
      "outputs": [],
      "payable": false,
      "stateMutability": "nonpayable",
      "type": "function"
    },
    {
      "constant": false,
      "inputs": [
        {
          "internalType": "address",
          "name": "_mocOracleAddress",
          "type": "address"
        }
      ],
      "name": "setMoCOracleAddress",
      "outputs": [],
      "payable": false,
      "stateMutability": "nonpayable",
      "type": "function"
    },
    {
      "constant": false,
      "inputs": [
        {
          "internalType": "address",
          "name": "newOwner",
          "type": "address"
        }
      ],
      "name": "transferOwnership",
      "outputs": [],
      "payable": false,
      "stateMutability": "nonpayable",
      "type": "function"
    }
  ],
  "transactionHash": "0x11030ac851cb23a705a5b46e6a54b096cb63d9eb3e3fb1029041706173207fa2",
  "args": [
    "0xfD78E69bB6f0A8903A3C4C30F2c8e5F3b9c57ecc",
    "0x85B1977ed5F4e2eB1aA97018C975cC0453548726"
  ],
  "numDeployments": 1,
  "solcInputHash": "1ad3d633e7c3e00d9d6f2e4c95eb91e2",
  "bytecode": "0x608060405234801561001057600080fd5b506040516109f83803806109f88339818101604052604081101561003357600080fd5b508051602090910151600061004f6001600160e01b036100c416565b600080546001600160a01b0319166001600160a01b0383169081178255604051929350917f8be0079c531659141344cd1fd0a4f28419497f9722a3daafe3b4186f6b6457e0908290a3506100ab826001600160e01b036100c816565b6100bd816001600160e01b036101da16565b505061033f565b3390565b6100d96001600160e01b036102d616565b610119576040805162461bcd60e51b815260206004820152600c60248201526b1d5b985d5d1a1bdc9a5e995960a21b604482015290519081900360640190fd5b61012c8161030360201b6105251760201c565b61017d576040805162461bcd60e51b815260206004820181905260248201527f5f6d6f634f7261636c6541646472657373206e6f74206120636f6e7472616374604482015290519081900360640190fd5b600180546001600160a01b0319166001600160a01b03838116919091179182905560408051338152905192909116917f1275deefe41e3273f2a99545002cc8369a04b2dbd04b2557e428a712cb2d5117916020908290030190a250565b6101eb6001600160e01b036102d616565b61022b576040805162461bcd60e51b815260206004820152600c60248201526b1d5b985d5d1a1bdc9a5e995960a21b604482015290519081900360640190fd5b61023e8161030360201b6105251760201c565b6102795760405162461bcd60e51b81526004018080602001828103825260258152602001806109d36025913960400191505060405180910390fd5b600280546001600160a01b0319166001600160a01b03838116919091179182905560408051338152905192909116917f19f45d93f29b5920e13b817913b71701efc2030198b4e44f604cf59be8874ec9916020908290030190a250565b600080546001600160a01b03166102f46001600160e01b036100c416565b6001600160a01b031614905090565b6000813f7fc5d2460186f7233c927e7db2dcc703c0e500b653ca82273b7bfad8045d85a47081811480159061033757508115155b949350505050565b6106858061034e6000396000f3fe608060405234801561001057600080fd5b50600436106100885760003560e01c80638f32d59b1161005b5780638f32d59b14610119578063c60de99814610135578063f106b5f41461013d578063f2fde38b1461014557610088565b80634541b2e31461008d57806350d25bcd146100b55780638da5cb5b146100cf5780638dab3157146100f3575b600080fd5b6100b3600480360360208110156100a357600080fd5b50356001600160a01b031661016b565b005b6100bd61026a565b60408051918252519081900360200190f35b6100d7610397565b604080516001600160a01b039092168252519081900360200190f35b6100b36004803603602081101561010957600080fd5b50356001600160a01b03166103a6565b61012161048f565b604080519115158252519081900360200190f35b6100d76104b3565b6100d76104c2565b6100b36004803603602081101561015b57600080fd5b50356001600160a01b03166104d1565b61017361048f565b6101b3576040805162461bcd60e51b815260206004820152600c60248201526b1d5b985d5d1a1bdc9a5e995960a21b604482015290519081900360640190fd5b6101bc81610525565b61020d576040805162461bcd60e51b815260206004820181905260248201527f5f6d6f634f7261636c6541646472657373206e6f74206120636f6e7472616374604482015290519081900360640190fd5b600180546001600160a01b0319166001600160a01b03838116919091179182905560408051338152905192909116917f1275deefe41e3273f2a99545002cc8369a04b2dbd04b2557e428a712cb2d5117916020908290030190a250565b6000806000600160009054906101000a90046001600160a01b03166001600160a01b03166359e02dd76040518163ffffffff1660e01b8152600401604080518083038186803b1580156102bc57600080fd5b505afa1580156102d0573d6000803e3d6000fd5b505050506040513d60408110156102e657600080fd5b5080516020909101519092509050801561030257509050610394565b600254604080516350d25bcd60e01b8152815160009384936001600160a01b03909116926350d25bcd9260048083019392829003018186803b15801561034757600080fd5b505afa15801561035b573d6000803e3d6000fd5b505050506040513d604081101561037157600080fd5b50805160209091015190925090508061038b57600061038d565b815b9450505050505b90565b6000546001600160a01b031690565b6103ae61048f565b6103ee576040805162461bcd60e51b815260206004820152600c60248201526b1d5b985d5d1a1bdc9a5e995960a21b604482015290519081900360640190fd5b6103f781610525565b6104325760405162461bcd60e51b815260040180806020018281038252602581526020018061062c6025913960400191505060405180910390fd5b600280546001600160a01b0319166001600160a01b03838116919091179182905560408051338152905192909116917f19f45d93f29b5920e13b817913b71701efc2030198b4e44f604cf59be8874ec9916020908290030190a250565b600080546001600160a01b03166104a4610561565b6001600160a01b031614905090565b6002546001600160a01b031681565b6001546001600160a01b031681565b6104d961048f565b610519576040805162461bcd60e51b815260206004820152600c60248201526b1d5b985d5d1a1bdc9a5e995960a21b604482015290519081900360640190fd5b61052281610565565b50565b6000813f7fc5d2460186f7233c927e7db2dcc703c0e500b653ca82273b7bfad8045d85a47081811480159061055957508115155b949350505050565b3390565b6001600160a01b0381166105aa5760405162461bcd60e51b81526004018080602001828103825260268152602001806106066026913960400191505060405180910390fd5b600080546040516001600160a01b03808516939216917f8be0079c531659141344cd1fd0a4f28419497f9722a3daafe3b4186f6b6457e091a3600080546001600160a01b0319166001600160a01b039290921691909117905556fe4f776e61626c653a206e6577206f776e657220697320746865207a65726f20616464726573735f66616c6c6261636b4f7261636c6541646472657373206e6f74206120636f6e7472616374a265627a7a72315820be58b292d3278f96ba526af02141bd0c7d06fcdf35ab3dd59854dca5135e08fd64736f6c634300051100325f66616c6c6261636b4f7261636c6541646472657373206e6f74206120636f6e7472616374",
  "devdoc": {
    "methods": {
      "constructor": {
        "params": {
          "_fallbackOracleAddress": "The fallback Oracle address.",
          "_mocOracleAddress": "The MoC Oracle address."
        }
      },
      "isOwner()": {
        "details": "Returns true if the caller is the current owner."
      },
      "latestAnswer()": {
        "return": "The latest time."
      },
      "owner()": {
        "details": "Returns the address of the current owner."
      },
      "setFallbackOracleAddress(address)": {
        "params": {
          "_fallbackOracleAddress": "The fallback Oracle address."
        }
      },
      "setMoCOracleAddress(address)": {
        "params": {
          "_mocOracleAddress": "The MoC Oracle address."
        }
      },
      "transferOwnership(address)": {
        "details": "Transfers ownership of the contract to a new account (`newOwner`). Can only be called by the current owner."
      }
    },
    "title": "Price Feed of MoC (Money on Chain) contract. * This contract contains the logic to set MoC oracles and query last price update."
  },
  "userdoc": {
    "methods": {
      "constructor": "Initialize a new MoC Oracle.",
      "latestAnswer()": {
        "notice": "Get the las time oracle updated the price."
      },
      "setFallbackOracleAddress(address)": {
        "notice": "Set the fallback Oracle address."
      },
      "setMoCOracleAddress(address)": {
        "notice": "Set the MoC Oracle address."
      }
    }
  },
  "storageLayout": {
    "storage": [
      {
        "astId": 55759,
        "contract": "contracts/feeds/PriceFeedsMoC.sol:PriceFeedsMoC",
        "label": "_owner",
        "offset": 0,
        "slot": "0",
        "type": "t_address"
      },
      {
        "astId": 12072,
        "contract": "contracts/feeds/PriceFeedsMoC.sol:PriceFeedsMoC",
        "label": "mocOracleAddress",
        "offset": 0,
        "slot": "1",
        "type": "t_address"
      },
      {
        "astId": 12074,
        "contract": "contracts/feeds/PriceFeedsMoC.sol:PriceFeedsMoC",
        "label": "fallbackOracleAddress",
        "offset": 0,
        "slot": "2",
        "type": "t_address"
      }
    ],
    "types": {
      "t_address": {
        "encoding": "inplace",
        "label": "address",
        "numberOfBytes": "20"
      }
    }
  }
}