{
  "address": "0x16261C66D8D687600E5CbF7945986044A6569cBe",
  "abi": [
    {
      "inputs": [],
      "payable": false,
      "stateMutability": "nonpayable",
      "type": "constructor"
    },
    {
      "constant": true,
      "inputs": [],
      "name": "latestAnswer",
      "outputs": [
        {
          "internalType": "uint256",
          "name": "",
          "type": "uint256"
        },
        {
          "internalType": "bool",
          "name": "",
          "type": "bool"
        }
      ],
      "payable": false,
      "stateMutability": "view",
      "type": "function"
    }
  ],
  "transactionHash": "0x7ff545d11d22d9bb68e06fdec9952f0c06bd19c5c65d20f28992fd3ad35bae24",
  "args": [],
  "numDeployments": 1,
  "solcInputHash": "0b1da6df82ab86bd428fa9fbe0919a7c",
  "bytecode": "0x6080604052348015600f57600080fd5b5060888061001e6000396000f3fe6080604052348015600f57600080fd5b506004361060285760003560e01c806350d25bcd14602d575b600080fd5b6033604c565b6040805192835290151560208301528051918290030190f35b600080909156fea265627a7a7231582063592a686011058c3361df46e4f8b0091fcadce1596b14bd8bbc8a26c90720b564736f6c63430005110032",
  "devdoc": {
    "details": "Dummy Oracle contract that supports MoC medianizer interface (latestAnswer) which will always return (0, false) value",
    "methods": {
      "latestAnswer()": {
        "details": "dummy function to support MoC medianizer",
        "return": "priceValue which is hardcoded to 0flag that indicate if the price is valid or not, hardcoded to false"
      }
    }
  },
  "userdoc": {
    "methods": {}
  },
  "storageLayout": {
    "storage": [],
    "types": null
  }
}